:020000040000FA
:0700000002093C53D9BF22A5
:10000B00020086900234EDF0A2AFE43390023FF091
:10001B00C2AFEF75F008A42425F9740035F0FA7B14
:10002B0001C002C00178357C027D01D001D0027E77
:10003B00007F0812039B90023FE024FF92AF9002D7
:10004B0034E0FF2436F582E43402F583E090023D80
:10005B00F074352FF582E43402F583E090023EF024
:10006B0090023DE0FEA3E0FF22AFA775A70F75A19D
:04007B00878FA722A2
:1000830002047FC0E0C0F0C083C082C0D075D0003E
:10009300C000C001C002C003C004C005C006C00741
:1000A300900230E4F0A3F0A3F0A3F0900000E0FE90
:1000B300A3E0FF4E6071EF640A4E7012900228F0C5
:1000C300A37481F07E001209CB7F09120A599000B4
:1000D30000E07004A3E06402701190022804F0A30E
:1000E300E4F0FE1209CB7F09120A59900000E07078
:1000F30004A3E064017020900228F078357C027D2F
:10010300017B017A027928FE7F0812039B7F0A1282
:1001130009DE7F0A120A59900001E024FFF09000E3
:1001230000E034FFF080239002287405F078357CDA
:10013300027D017B017A0279287E007F0812039BEE
:100143007F0A1209DE7F0A120A59E4FD7F051200B5
:100153000EEF5401900230F0E4FD7F0612000EEF23
:100163005401900231F0E4FD7F0712000EEF5401B9
:10017300900232F0E4FD7F0812000EEF5401FF906D
:100183000233F0900231E0FE900230E02EFE900246
:1001930032E02E2F900002F0900228120422000079
:1001A300000090022C12042200000000E4FD7F06F0
:1001B30012000E7E00EF5404FFC006C007E4FD7F6B
:1001C3000512000EEF5404FDD0E02DFFD0E0340003
:1001D300FEC006C007E4FD7F0712000EEF5404FDC6
:1001E300D0E02DFFD0E03400FEC006C007E4FD7F61
:1001F3000812000EEF5404FDD0E02DFDD0E03400D2
:10020300FC900002E075F004A4B5050EECB5F00A0D
:10021300C2809002287401F08007D280900228E403
:10022300F0900230E0601D78357C027D017B017A1D
:100233000279287E007F0812039B7F011209DE7F6B
:1002430001120A59900231E0601D78357C027D016C
:100253007B017A0279287E007F0812039B7F0212BA
:1002630009DE7F02120A59900232E0601D78357C64
:10027300027D017B017A0279287E007F0812039BAD
:100283007F031209DE7F03120A59900233E0601DD7
:1002930078357C027D017B017A0279287E007F0814
:1002A30012039B7F041209DE7F04120A59D007D080
:1002B30006D005D004D003D002D001D000D0D0D0D6
:1002C30082D083D0F0D0E032E709F608DFFA804627
:1002D300E709F208DFFA803E88828C83E709F0A3FE
:1002E300DFFA8032E309F608DFFA8078E309F208DF
:1002F300DFFA807088828C83E309F0A3DFFA8064DD
:1003030089828A83E0A3F608DFFA805889828A8388
:10031300E0A3F208DFFA804C80D280FA80C680D452
:10032300806980F28033801080A680EA809A80A85A
:1003330080DA80E280CA803389828A83ECFAE4938C
:10034300A3C8C582C8CCC583CCF0A3C8C582C8CC1A
:10035300C583CCDFE9DEE7800D89828A83E493A33A
:10036300F608DFF9ECFAA9F0EDFB2289828A83EC27
:10037300FAE0A3C8C582C8CCC583CCF0A3C8C582A4
:10038300C8CCC583CCDFEADEE880DB89828A83E4DC
:1003930093A3F208DFF980CC88F0EF60010E4E6082
:1003A300C388F0ED2402B4040050B9F582EB2402B3
:1003B300B4040050AF232345822390031B73BC0076
:1003C3000BBE0029EF8DF084FFADF022E4CCF8756D
:1003D300F008EF2FFFEE33FEEC33FCEE9DEC98407C
:1003E30005FCEE9DFE0FD5F0E9E4CEFD22EDF8F518
:1003F300F0EE8420D21CFEADF075F008EF2FFFED78
:1004030033FD4007985006D5F0F222C398FD0FD56F
:10041300F0EA22ECF0A3EDF0A3EEF0A3EFF022A8B4
:10042300828583F0D083D0821204391204391204F6
:1004330039120439E473E493A3C583C5F0C583C8B3
:10044300C582C8F0A3C583C5F0C583C8C582C822C9
:10045300EF4E6012EF60010EEDBB010B89828A83C0
:10046300F0A3DFFCDEFA2289F05007F709DFFCA9CD
:10047300F022BBFEFCF309DFFCA9F022C0E0C0F0D0
:10048300C083C082C0D075D000C000C001C002C00C
:1004930003C004C005C006C007900240E594F0AF56
:1004A3009CA3EFF075C30075C27FE0FFFD75BF002D
:1004B3008DBEEF64207001F0E5BF20E7FB900240A2
:1004C300E054187003020549A3E0D3940F74809499
:1004D300805046900187E0F8A3E0F9A3E0FAA3E097
:1004E300FBC000C001C002C003900241E0FF7E00D8
:1004F3007401A807088005C333CE33CED8F9FFD0E3
:1005030003D002D001D000EB4FFFEA4EFEE9FDE835
:10051300FC900187120416802D900241E0FFD394D2
:100523001F74809480501FEF24F0FF7E007401A895
:1005330007088005C333CE33CED8F9FF900187E097
:100543004EF0A3E04FF0900240E0FF20E4030205E9
:10055300F9A3E0FE75F008A42425F582E5F0340044
:10056300F583E5D4F075F008EEA42426F582E5F0D2
:100573003400F583E5D5F075F008EEA42427F58261
:10058300E5F03400F583E5D6F075F008EEA42428F1
:10059300F582E5F03400F583E5D7F075F008EEA4B5
:1005A3002429F582E5F03400F583E5DAF075F008E7
:1005B300EEA4242AF582E5F03400F583E5DBF0753B
:1005C300F008EEA4242BF582E5F03400F583E5DC96
:1005D300F075F008EEA4242CF582E5F03400F583E1
:1005E300E5DDF0EE25E024D7F582E43401F583E57B
:1005F300CDF0A3E5CCF0EF5407600664076002D2A8
:1006030000900240E030E702D200900240E030E682
:1006130002D200D007D006D005D004D003D002D038
:1006230001D000D0D0D082D083D0F0D0E032E4F536
:10063300A77E017F08FD7B017A00792512045312FE
:100643000074120A81120A6F12079690018712042E
:10065300220000000043E702D2AFC2AFE4FD7F0BEC
:1006630012000E90021BEFF07D047F0512000E9026
:10067300012DEEF0A3EFF07D047F0612000E900132
:1006830031EEF0A3EFF07D047F0712000E900135E9
:10069300EEF0A3EFF07D047F0812000E900139EE17
:1006A300F0A3EFF07D067F0512000E90013DEEF002
:1006B300A3EFF07D067F0612000E90013FEEF0A33C
:1006C300EFF07D067F0712000E900141EEF0A3EFDD
:1006D300F07D067F0812000E900143EEF0A3EFF0C9
:1006E3007F20120A1CC002C001788B7C017D01D0DF
:1006F30001D0027E007F0812039BD2AF900131E04C
:10070300FEA3E0FF90012EE02FFF90012DE03EFEBF
:10071300900136E02FFF900135E03EFE90013AE074
:100723002FFF900139E03EFE900003E0FBFD7C00CB
:100733001203C1EF4E7F016002AF039001D5E4F0D5
:10074300A3EFF090013FE0FEA3E0FF90013EE02F16
:10075300FF90013DE03EFE900142E02FFF900141FA
:10076300E03EFE900144E02FFF900143E03EFE9007
:100773000003E0FBFD7C001203C1EF4E7F0160022A
:10078300AF03900219E4F0A3EFF0A3E024FF9280FB
:1007930002065DADA775A70C43C00143C04E759B10
:1007A3001C759A0275C30075C2F0E4F5C5F5C475EE
:1007B300C75F75C6FCF5CBF5CAFCECC39421748006
:1007C3009480400302086874932CF582E43401F5A5
:1007D30083E0607574B42CF582E43401F583E06042
:1007E3003174042CF582E43400F583E0448075D33E
:1007F30000F5D2EC25E02445F582E43401F583E0ED
:10080300FEA3E07802C333CE33CED8F9FFEE44A083
:10081300803174042CF582E43400F583E0FFEF4467
:100823008075D314F5D2EC25E02445F582E4340138
:10083300F583E0FEA3E07802C333CE33CED8F9FFCD
:10084300EE4480F5CD8FCC800CE4F5CDF5CCECFFF8
:1008530075BF008FBEECFF75BF008FBEE5BF20E7FD
:10086300FB0C0207BD53C0BE43E702AF058FA722AF
:10087300C10041021B00410003006042014500002A
:10088300020602070208020901E601E701E801E99D
:100893000000071B001B001B0013001400150016AB
:1008A3000017001800190020002100220023002453
:1008B3000025002600270028002900300031000011
:1008C300602101B4000101010100000000010100E9
:1008D3000100000000000000000000000000000014
:1008E3000000000000602100040808080808080848
:1008F30008080201010200000000000000000000DF
:1009030000000000000000000008602101930101C5
:1009130001010101010101010101010000000000C9
:100923000000000000000000000000000000014281
:100933000000000A4100020000120003787FE4F681
:10094300D8FD758120020986020631E493A3F8E4F9
:1009530093A34003F68001F208DFF48029E493A314
:10096300F85407240CC8C333C4540F4420C883402D
:1009730004F456800146F6DFE4800B0102040810FC
:10098300204080900873E47E019360BCA3FF543F32
:1009930030E509541FFEE493A360010ECF54C02534
:1009A300E060A840B8E493A3FAE493A3F8E493A324
:1009B300C8C582C8CAC583CAF0A3C8C582C8CAC588
:1009C30083CADFE9DEE780BE78357C027D017B01E7
:1009D3007A0279287F0812039B7F09AEA775A70CBB
:1009E300900235E0F5D4A3E0F5D5A3E0F5D6A3E076
:1009F300F5D7A3E0F5DAA3E0F5DBA3E0F5DCA3E0AC
:100A0300F5DD75C30075C287EFFD75BF008DBEE5CB
:100A1300BF20E7FBAF068FA722A2AFE433900224E7
:100A2300F0C2AFEF75F008A42425F9740035F0FA8D
:100A33007B01C002C001781C7C027D01D001D00281
:100A43007E007F0812039B900224E024FF92AF7B79
:100A5300017A02791C22AEA775A70CEFFD75BF00C2
:100A63008DBEE5BF20E7FBAF068FA722758C9E7571
:100A73008A57758901758E02D2A975881022AFA78E
:0F0A830075A70F43A44075E10275C7408FA722E6
:00000001FF
